:1000000002015E80338C2B8D2C8013758CD8758A01
:10001000F0D28C308D02800280F9C28DC28CAC2B64
:10002000E52CFD152C7002152BED24FFEC648034BB
:100030007F4002800280D42280CB02014775890272
:10004000752200752301752402752504752608752F
:100050002710752820752940752A808522907C00FC
:100060007D02120003752000752101E52124F7E5CA
:10007000206480347F500280028003020143E52126
:10008000B40107E520B40002800CE521B40209E5C3
:1000900020B40004800080048000800DE523252426
:1000A000F5907C007D14120003E521B40307E520E0
:1000B000B40002800CE521B40409E520B4000480FA
:1000C0000080048000800DE529252AF5907C007DC4
:1000D00014120003E521B40507E520B40002800CEA
:1000E000E521B40609E520B4000480008004800006
:1000F000800DE5252526F5907C007D32120003E574
:1001000021B40707E520B40002800CE521B40809FA
:10011000E520B40004800080048000800DE52725E0
:1001200028F5907C007D321200030521E521700244
:100130000520E52124F7E5206480347F5002800308
:1001400002007E0200652202003DE4F5D075812D9B
:1001500078207A0DF608DAFC12003A02000002015B
:010160004A54
:00000001FF
