:100000000200CB806F780179007A007B227D067C2C
:100010000012008C780179067A007B287D0B7C0029
:1000200012008C759000752000E52024F9500280A4
:10003000028002803A309002800280277422A92038
:10004000780029F987A0752100E521249C500280C1
:10005000028002800E80000521E521249C50028050
:100060000280F20520E52024F95002800280C6803B
:10007000B580FE22808F898288838B00EC4D6036AC
:10008000E4E0F608A31DBDFFF31C80F0B800118B5F
:1000900000EC4D6021E7F609081DBDFFF41C80F15E
:1000A000898288838B00EC4D600CE493F608A31DD5
:1000B000BDFFF31C80F022E4F5D075813378207AFF
:0E00C00013F608DAFC1200030200000200B77B
:10010000F9B092F890FFF9B092F890FF000000006B
:0101100000EE
:00000001FF
