:100000000200D080108D998D2580003099028002E9
:1000100080F9C2992280EE8060780179007A007BB5
:10002000227D037C00120091758740758920D28E55
:10003000758DFAE4F520F521E52124FDE5206480A5
:10004000347F500280028002802C74222521F9879F
:10005000E075986074222521F987051200030521B7
:10006000E52170020520E52124FDE5206480347F30
:100070005002800280D480FE22809E898288838BF9
:1000800000EC4D6036E4E0F608A31DBDFFF31C80D4
:10009000F0B800118B00EC4D6021E7F609081DBD9A
:1000A000FFF41C80F1898288838B00EC4D600CE4A6
:1000B00093F608A31DBDFFF31C80F022E4F5D07574
:1000C000812678207A06F608DAFC12001702000072
:0300D0000200BC6F
:03010000616263D6
:00000001FF
