:1000000002009B802A8C228D23E5234522600280FA
:10001000028010E52324FFF523E52234FFF522C2F8
:10002000908002D29030CF02800280DDC2CF228049
:10003000D480527520007521017590FE75CB0C752A
:10004000CAB053C8FCD2ADD2AFD2CA30B602800219
:10005000800675200075210130B70280028005E41A
:10006000F520F521E521B40107E520B40002800266
:1000700080097C087D9812000380077C047DB01203
:10008000000380C72280ACE4F5D0758124F520F50B
:0E00900021F522F52312003102000002008744
:00000001FF
