:1000000002008AE5836003E49322A882E622E58366
:100010006004E4938003A882E6F822E5836004E4A8
:10002000938003A882E6F922E5836004E4938003C9
:10003000A882E6FA22E5836004E4938003A882E6BE
:10004000FB22E5836004E4938003A882E6FC22E5BA
:10005000836004E4938003A882E6FD22E5836004C4
:10006000E4938003A882E6FE22E5836004E49380A3
:1000700003A882E6FF22E4F5D075813678207A164F
:0D008000F608DAFC1201A30200000200766F
:10010000326E64206C696E650048656C6C6F21000E
:100110002E0201A0E4F530F5318A328B338C348D18
:1001200035801175802075A00375A0020531E53179
:1001300070020530E52EB53007E52FB53102800697
:100140005002800280DDE52E20E7138000780079E0
:1001500000800DE4C3952FF9E4952EF8800280F31A
:1001600088308931801FE5312535F582E530353419
:10017000F583120003F58075A00375A0020531E533
:100180003170020530E5332401FDE5323400FCEC2A
:10019000B53006EDB5310280065002800280C722DC
:1001A00002011402024075260175270975280175A0
:1001B0002900E4F52AF52B752C00752D14752A00FD
:1001C000752B0C75803875A00175A000758086753B
:1001D000A00175A000E4F522F523E52324FAE52229
:1001E00034FF500280028002802DE5232527F5820E
:1001F000E5223526F583120003F58075A00375A06E
:10020000020523E52370020522E52324FAE52234C2
:10021000FF5002800280D37580C075A00175A000D8
:10022000852A2E852B2F7A007B08AC28AD29120158
:1002300011E52B24FFF52BE52A34FFF52A808422D3
:030240000201A612
:00000001FF
